{
  "_format": "hh-sol-artifact-1",
  "contractName": "WattWitnessConsumer",
  "sourceName": "contracts/WattWitnessConsumer.sol",
  "abi": [
    {
      "inputs": [
        {
          "internalType": "address",
          "name": "router",
          "type": "address"
        },
        {
          "internalType": "uint64",
          "name": "_subscriptionId",
          "type": "uint64"
        },
        {
          "internalType": "bytes32",
          "name": "_donId",
          "type": "bytes32"
        }
      ],
      "stateMutability": "nonpayable",
      "type": "constructor"
    },
    {
      "inputs": [],
      "name": "EmptyArgs",
      "type": "error"
    },
    {
      "inputs": [],
      "name": "EmptySource",
      "type": "error"
    },
    {
      "inputs": [],
      "name": "NoInlineSecrets",
      "type": "error"
    },
    {
      "inputs": [],
      "name": "OnlyRouterCanFulfill",
      "type": "error"
    },
    {
      "anonymous": false,
      "inputs": [
        {
          "indexed": true,
          "internalType": "bytes32",
          "name": "requestId",
          "type": "bytes32"
        },
        {
          "indexed": false,
          "internalType": "bytes",
          "name": "response",
          "type": "bytes"
        }
      ],
      "name": "EnergyDataValidated",
      "type": "event"
    },
    {
      "anonymous": false,
      "inputs": [
        {
          "indexed": true,
          "internalType": "bytes32",
          "name": "id",
          "type": "bytes32"
        }
      ],
      "name": "RequestFulfilled",
      "type": "event"
    },
    {
      "anonymous": false,
      "inputs": [
        {
          "indexed": true,
          "internalType": "bytes32",
          "name": "id",
          "type": "bytes32"
        }
      ],
      "name": "RequestSent",
      "type": "event"
    },
    {
      "anonymous": false,
      "inputs": [
        {
          "indexed": true,
          "internalType": "bytes32",
          "name": "requestId",
          "type": "bytes32"
        },
        {
          "indexed": false,
          "internalType": "bytes",
          "name": "error",
          "type": "bytes"
        }
      ],
      "name": "ValidationError",
      "type": "event"
    },
    {
      "inputs": [],
      "name": "donId",
      "outputs": [
        {
          "internalType": "bytes32",
          "name": "",
          "type": "bytes32"
        }
      ],
      "stateMutability": "view",
      "type": "function"
    },
    {
      "inputs": [],
      "name": "gasLimit",
      "outputs": [
        {
          "internalType": "uint32",
          "name": "",
          "type": "uint32"
        }
      ],
      "stateMutability": "view",
      "type": "function"
    },
    {
      "inputs": [],
      "name": "getLastRequestDetails",
      "outputs": [
        {
          "internalType": "bytes32",
          "name": "requestId",
          "type": "bytes32"
        },
        {
          "internalType": "bytes",
          "name": "response",
          "type": "bytes"
        },
        {
          "internalType": "bytes",
          "name": "error",
          "type": "bytes"
        }
      ],
      "stateMutability": "view",
      "type": "function"
    },
    {
      "inputs": [
        {
          "internalType": "bytes32",
          "name": "requestId",
          "type": "bytes32"
        },
        {
          "internalType": "bytes",
          "name": "response",
          "type": "bytes"
        },
        {
          "internalType": "bytes",
          "name": "err",
          "type": "bytes"
        }
      ],
      "name": "handleOracleFulfillment",
      "outputs": [],
      "stateMutability": "nonpayable",
      "type": "function"
    },
    {
      "inputs": [],
      "name": "lastError",
      "outputs": [
        {
          "internalType": "bytes",
          "name": "",
          "type": "bytes"
        }
      ],
      "stateMutability": "view",
      "type": "function"
    },
    {
      "inputs": [],
      "name": "lastRequestId",
      "outputs": [
        {
          "internalType": "bytes32",
          "name": "",
          "type": "bytes32"
        }
      ],
      "stateMutability": "view",
      "type": "function"
    },
    {
      "inputs": [],
      "name": "lastResponse",
      "outputs": [
        {
          "internalType": "bytes",
          "name": "",
          "type": "bytes"
        }
      ],
      "stateMutability": "view",
      "type": "function"
    },
    {
      "inputs": [],
      "name": "owner",
      "outputs": [
        {
          "internalType": "address",
          "name": "",
          "type": "address"
        }
      ],
      "stateMutability": "view",
      "type": "function"
    },
    {
      "inputs": [],
      "name": "subscriptionId",
      "outputs": [
        {
          "internalType": "uint64",
          "name": "",
          "type": "uint64"
        }
      ],
      "stateMutability": "view",
      "type": "function"
    },
    {
      "inputs": [
        {
          "internalType": "uint32",
          "name": "newGasLimit",
          "type": "uint32"
        }
      ],
      "name": "updateGasLimit",
      "outputs": [],
      "stateMutability": "nonpayable",
      "type": "function"
    },
    {
      "inputs": [
        {
          "internalType": "string",
          "name": "source",
          "type": "string"
        },
        {
          "internalType": "string[]",
          "name": "args",
          "type": "string[]"
        }
      ],
      "name": "validateEnergyData",
      "outputs": [],
      "stateMutability": "nonpayable",
      "type": "function"
    }
  ],
  "bytecode": "0x60a06040526004805463ffffffff60401b19166a0493e0000000000000000017905534801561002d57600080fd5b5060405161142238038061142283398101604081905261004c91610095565b6001600160a01b03909216608052600080546001600160a01b03191633179055600480546001600160401b039092166001600160401b03199092169190911790556005556100f0565b6000806000606084860312156100aa57600080fd5b83516001600160a01b03811681146100c157600080fd5b60208501519093506001600160401b03811681146100de57600080fd5b80925050604084015190509250925092565b608051611310610112600039600081816101d1015261093d01526113106000f3fe608060405234801561001057600080fd5b50600436106100a95760003560e01c806362747e421161007157806362747e42146101345780638da5cb5b1461013c5780638dbe7b9d14610167578063f68016b71461017e578063fc2a88c3146101aa578063fceba1e1146101b357600080fd5b806309c1ba2e146100ae5780630ca76175146100e057806315b30c2e146100f557806329f0de3f1461010c57806334303bcd14610121575b600080fd5b6004546100c29067ffffffffffffffff1681565b60405167ffffffffffffffff90911681526020015b60405180910390f35b6100f36100ee366004610e26565b6101c6565b005b6100fd61024a565b6040516100d793929190610ed9565b610114610379565b6040516100d79190610f0e565b6100f361012f366004610f21565b610407565b61011461047e565b60005461014f906001600160a01b031681565b6040516001600160a01b0390911681526020016100d7565b61017060055481565b6040519081526020016100d7565b60045461019590600160401b900463ffffffff1681565b60405163ffffffff90911681526020016100d7565b61017060015481565b6100f36101c1366004610f47565b61048b565b336001600160a01b037f0000000000000000000000000000000000000000000000000000000000000000161461020f5760405163c6829f8360e01b815260040160405180910390fd5b61021a8383836105a4565b60405183907f85e1543bf2f84fe80c6badbce3648c8539ad1df4d2b3d822938ca0538be727e690600090a2505050565b6000606080600154600260038180546102629061100c565b80601f016020809104026020016040519081016040528092919081815260200182805461028e9061100c565b80156102db5780601f106102b0576101008083540402835291602001916102db565b820191906000526020600020905b8154815290600101906020018083116102be57829003601f168201915b505050505091508080546102ee9061100c565b80601f016020809104026020016040519081016040528092919081815260200182805461031a9061100c565b80156103675780601f1061033c57610100808354040283529160200191610367565b820191906000526020600020905b81548152906001019060200180831161034a57829003601f168201915b50505050509050925092509250909192565b600380546103869061100c565b80601f01602080910402602001604051908101604052809291908181526020018280546103b29061100c565b80156103ff5780601f106103d4576101008083540402835291602001916103ff565b820191906000526020600020905b8154815290600101906020018083116103e257829003601f168201915b505050505081565b6000546001600160a01b031633146104535760405162461bcd60e51b815260206004820152600a60248201526927b7363c9037bbb732b960b11b60448201526064015b60405180910390fd5b6004805463ffffffff909216600160401b026bffffffff000000000000000019909216919091179055565b600280546103869061100c565b6000546001600160a01b031633146104d25760405162461bcd60e51b815260206004820152600a60248201526927b7363c9037bbb732b960b11b604482015260640161044a565b6105136040805160e0810190915280600081526020016000815260200160008152602001606081526020016060815260200160608152602001606081525090565b61055585858080601f016020809104026020016040519081016040528093929190818152602001838380828437600092019190915250859392505061063c9050565b6105696105628385611046565b829061064d565b61059a61057582610677565b60045460055467ffffffffffffffff821691600160401b900463ffffffff1690610938565b6001555050505050565b600183905560026105b5838261112c565b5060036105c2828261112c565b5080511561060757827f117a86149778ff90e829e89c41011e842976410c15ad7e967c7afea04c99af32826040516105fa9190610f0e565b60405180910390a2505050565b827f753981733d51473c82040cc4f6d85a6b4733377357675e3430a21c6a96a2e65e836040516105fa9190610f0e565b505050565b6106498260008084610a0a565b5050565b805160000361066f5760405163fe936cb760e01b815260040160405180910390fd5b60a090910152565b60606000610686610100610a88565b90506106bf6040518060400160405280600c81526020016b31b7b232a637b1b0ba34b7b760a11b81525082610ac990919063ffffffff16565b82516106dd9060028111156106d6576106d66111ec565b8290610ad5565b6040805180820190915260088152676c616e677561676560c01b6020820152610707908290610ac9565b604083015161071e9080156106d6576106d66111ec565b604080518082019091526006815265736f7572636560d01b6020820152610746908290610ac9565b6060830151610756908290610ac9565b60a083015151156107ea576040805180820190915260048152636172677360e01b6020820152610787908290610ac9565b61079081610ae1565b60005b8360a00151518110156107e0576107d08460a0015182815181106107b9576107b9611202565b602002602001015183610ac990919063ffffffff16565b6107d98161122e565b9050610793565b506107ea81610aef565b608083015151156108ae5760008360200151600281111561080d5761080d6111ec565b0361082b5760405163a80d31f760e01b815260040160405180910390fd5b60408051808201909152600f81526e39b2b1b932ba39a637b1b0ba34b7b760891b602082015261085c908290610ac9565b610875836020015160028111156106d6576106d66111ec565b6040805180820190915260078152667365637265747360c81b602082015261089e908290610ac9565b60808301516108ae908290610ac9565b60c083015151156109305760408051808201909152600981526862797465734172677360b81b60208201526108e4908290610ac9565b6108ed81610ae1565b60005b8360c0015151811015610926576109168460c0015182815181106107b9576107b9611202565b61091f8161122e565b90506108f0565b5061093081610aef565b515192915050565b6000807f00000000000000000000000000000000000000000000000000000000000000006001600160a01b031663461d27628688600188886040518663ffffffff1660e01b8152600401610990959493929190611247565b6020604051808303816000875af11580156109af573d6000803e3d6000fd5b505050506040513d601f19601f820116820180604052508101906109d39190611291565b60405190915081907f1131472297a800fee664d1d89cfa8f7676ff07189ecc53f80bbb5f4969099db890600090a295945050505050565b8051600003610a2c576040516322ce3edd60e01b815260040160405180910390fd5b83836002811115610a3f57610a3f6111ec565b90816002811115610a5257610a526111ec565b90525060408401828015610a6857610a686111ec565b90818015610a7857610a786111ec565b9052506060909301929092525050565b610a90610d2b565b604080518082019091526060815260006020820152610aaf8184610afa565b604080518082019091529081526000602082015292915050565b81516106499082610b4b565b81516106499082610b55565b8051610aec90610b80565b50565b8051610aec90610ba3565b602082018190528067ffffffffffffffff811115610b1a57610b1a610d60565b6040519080825280601f01601f191660200182016040528015610b44576020820181803683370190505b5090915250565b6106498282610bc6565b6106498282604051602001610b6c91815260200190565b604051602081830303815290604052610bc6565b610aec81604051806040016040528060018152602001609f60f81b815250610bc6565b610aec816040518060400160405280600181526020016001600160f81b03198152505b8051825151610bde84610bd984846112aa565b610c59565b60005b82811015610c5257838181518110610bfb57610bfb611202565b016020015185516001600160f81b031990911690610c1983856112aa565b81518110610c2957610c29611202565b60200101906001600160f81b031916908160001a90535080610c4a8161122e565b915050610be1565b5050505050565b81602001518111156106495781516000610c748360026112c3565b90508067ffffffffffffffff811115610c8f57610c8f610d60565b6040519080825280601f01601f191660200182016040528015610cb9576020820181803683370190505b5084526020840181905260005b8251811015610c5257828181518110610ce157610ce1611202565b602001015160f81c60f81b85600001518281518110610d0257610d02611202565b60200101906001600160f81b031916908160001a90535080610d238161122e565b915050610cc6565b6040518060400160405280610d53604051806040016040528060608152602001600081525090565b8152602001600081525090565b634e487b7160e01b600052604160045260246000fd5b604051601f8201601f1916810167ffffffffffffffff81118282101715610d9f57610d9f610d60565b604052919050565b600067ffffffffffffffff831115610dc157610dc1610d60565b610dd4601f8401601f1916602001610d76565b9050828152838383011115610de857600080fd5b828260208301376000602084830101529392505050565b600082601f830112610e1057600080fd5b610e1f83833560208501610da7565b9392505050565b600080600060608486031215610e3b57600080fd5b83359250602084013567ffffffffffffffff80821115610e5a57600080fd5b610e6687838801610dff565b93506040860135915080821115610e7c57600080fd5b50610e8986828701610dff565b9150509250925092565b6000815180845260005b81811015610eb957602081850181015186830182015201610e9d565b506000602082860101526020601f19601f83011685010191505092915050565b838152606060208201526000610ef26060830185610e93565b8281036040840152610f048185610e93565b9695505050505050565b602081526000610e1f6020830184610e93565b600060208284031215610f3357600080fd5b813563ffffffff81168114610e1f57600080fd5b60008060008060408587031215610f5d57600080fd5b843567ffffffffffffffff80821115610f7557600080fd5b818701915087601f830112610f8957600080fd5b813581811115610f9857600080fd5b886020828501011115610faa57600080fd5b602092830196509450908601359080821115610fc557600080fd5b818701915087601f830112610fd957600080fd5b813581811115610fe857600080fd5b8860208260051b8501011115610ffd57600080fd5b95989497505060200194505050565b600181811c9082168061102057607f821691505b60208210810361104057634e487b7160e01b600052602260045260246000fd5b50919050565b600067ffffffffffffffff8084111561106157611061610d60565b8360051b6020611072818301610d76565b86815291850191818101903684111561108a57600080fd5b865b848110156110d2578035868111156110a45760008081fd5b880136601f8201126110b65760008081fd5b6110c4368235878401610da7565b84525091830191830161108c565b50979650505050505050565b601f82111561063757600081815260208120601f850160051c810160208610156111055750805b601f850160051c820191505b8181101561112457828155600101611111565b505050505050565b815167ffffffffffffffff81111561114657611146610d60565b61115a81611154845461100c565b846110de565b602080601f83116001811461118f57600084156111775750858301515b600019600386901b1c1916600185901b178555611124565b600085815260208120601f198616915b828110156111be5788860151825594840194600190910190840161119f565b50858210156111dc5787850151600019600388901b60f8161c191681555b5050505050600190811b01905550565b634e487b7160e01b600052602160045260246000fd5b634e487b7160e01b600052603260045260246000fd5b634e487b7160e01b600052601160045260246000fd5b60006001820161124057611240611218565b5060010190565b67ffffffffffffffff8616815260a06020820152600061126a60a0830187610e93565b61ffff9590951660408301525063ffffffff92909216606083015260809091015292915050565b6000602082840312156112a357600080fd5b5051919050565b808201808211156112bd576112bd611218565b92915050565b80820281158282048414176112bd576112bd61121856fea2646970667358221220a7fcb962d28a6b4d9b1c7cf55d9e738d7eda1dbec42ece6142e2318f44743e2f64736f6c63430008130033",
  "linkReferences": {},
  "deployedLinkReferences": {}
}