{"contracts/WattWitness.sol":{"WattWitness":{"abi":[{"inputs":[],"stateMutability":"nonpayable","type":"constructor"},{"anonymous":false,"inputs":[{"indexed":true,"internalType":"uint256","name":"installationId","type":"uint256"}],"name":"DeviceRegistered","type":"event"},{"anonymous":false,"inputs":[{"indexed":true,"internalType":"uint256","name":"installationId","type":"uint256"},{"indexed":false,"internalType":"uint256","name":"timestamp","type":"uint256"},{"indexed":false,"internalType":"uint256","name":"powerConsumption","type":"uint256"},{"indexed":false,"internalType":"uint256","name":"powerProduction","type":"uint256"}],"name":"EnergyDataSubmitted","type":"event"},{"inputs":[{"internalType":"uint256","name":"","type":"uint256"}],"name":"deviceDataCount","outputs":[{"internalType":"uint256","name":"","type":"uint256"}],"stateMutability":"view","type":"function"},{"inputs":[{"internalType":"uint256","name":"","type":"uint256"},{"internalType":"uint256","name":"","type":"uint256"}],"name":"deviceReadings","outputs":[{"internalType":"uint256","name":"installationId","type":"uint256"},{"internalType":"uint256","name":"timestamp","type":"uint256"},{"internalType":"uint256","name":"powerConsumption","type":"uint256"},{"internalType":"uint256","name":"powerProduction","type":"uint256"},{"internalType":"uint256","name":"blockNumber","type":"uint256"},{"internalType":"bytes","name":"signature","type":"bytes"}],"stateMutability":"view","type":"function"},{"inputs":[{"internalType":"uint256","name":"_installationId","type":"uint256"}],"name":"getDeviceStats","outputs":[{"internalType":"uint256","name":"lastTimestamp","type":"uint256"},{"internalType":"uint256","name":"totalConsumption","type":"uint256"},{"internalType":"uint256","name":"totalProduction","type":"uint256"}],"stateMutability":"view","type":"function"},{"inputs":[],"name":"getNetworkInfo","outputs":[{"internalType":"string","name":"networkName","type":"string"},{"internalType":"uint256","name":"chainId","type":"uint256"}],"stateMutability":"view","type":"function"},{"inputs":[{"internalType":"uint256","name":"_installationId","type":"uint256"}],"name":"getReadingCount","outputs":[{"internalType":"uint256","name":"count","type":"uint256"}],"stateMutability":"view","type":"function"},{"inputs":[{"internalType":"uint256","name":"_installationId","type":"uint256"}],"name":"isDeviceRegistered","outputs":[{"internalType":"bool","name":"","type":"bool"}],"stateMutability":"view","type":"function"},{"inputs":[],"name":"owner","outputs":[{"internalType":"address","name":"","type":"address"}],"stateMutability":"view","type":"function"},{"inputs":[{"internalType":"uint256","name":"_installationId","type":"uint256"}],"name":"registerDevice","outputs":[],"stateMutability":"nonpayable","type":"function"},{"inputs":[{"internalType":"uint256","name":"","type":"uint256"}],"name":"registeredDevices","outputs":[{"internalType":"bool","name":"","type":"bool"}],"stateMutability":"view","type":"function"},{"inputs":[{"internalType":"uint256","name":"_installationId","type":"uint256"},{"internalType":"uint256","name":"_timestamp","type":"uint256"},{"internalType":"uint256","name":"_powerConsumption","type":"uint256"},{"internalType":"uint256","name":"_powerProduction","type":"uint256"},{"internalType":"bytes","name":"_signature","type":"bytes"}],"name":"submitEnergyData","outputs":[],"stateMutability":"nonpayable","type":"function"}],"evm":{"bytecode":{"linkReferences":{},"object":"608060405234801561001057600080fd5b50600080546001600160a01b03191633179055610b79806100326000396000f3fe608060405234801561001057600080fd5b506004361061009e5760003560e01c806385ac9a8e1161006657806385ac9a8e146101715780638da5cb5b14610191578063bd48c51a146101bc578063e2127499146101df578063ea355e5c146101f257600080fd5b8063389dc6e2146100a357806343386ed0146100d65780635590aeb3146101095780637a278aa61461012e5780637a407fb51461015c575b600080fd5b6100b66100b136600461078d565b61022c565b604080519384526020840192909252908201526060015b60405180910390f35b6100f96100e436600461078d565b60016020526000908152604090205460ff1681565b60405190151581526020016100cd565b61011c6101173660046107a6565b61047e565b6040516100cd9695949392919061080e565b61014e61013c36600461078d565b60026020526000908152604090205481565b6040519081526020016100cd565b61016f61016a366004610861565b61055f565b005b61014e61017f36600461078d565b60009081526002602052604090205490565b6000546101a4906001600160a01b031681565b6040516001600160a01b0390911681526020016100cd565b6100f96101ca36600461078d565b60009081526001602052604090205460ff1690565b61016f6101ed36600461078d565b61071d565b6040805180820182526016815275105d985b185b98da1948119d5a9a4815195cdd1b995d60521b602082015290516100cd91904690610939565b6000818152600160205260408120548190819060ff1661028b5760405162461bcd60e51b815260206004820152601560248201527411195d9a58d9481b9bdd081c9959da5cdd195c9959605a1b60448201526064015b60405180910390fd5b600084815260036020908152604080832080548251818502810185019093528083529192909190849084015b828210156103ad57838290600052602060002090600602016040518060c0016040529081600082015481526020016001820154815260200160028201548152602001600382015481526020016004820154815260200160058201805461031c9061095b565b80601f01602080910402602001604051908101604052809291908181526020018280546103489061095b565b80156103955780601f1061036a57610100808354040283529160200191610395565b820191906000526020600020905b81548152906001019060200180831161037857829003601f168201915b505050505081525050815260200190600101906102b7565b5050505090506000806000805b8451811015610471578481815181106103d5576103d5610995565b602002602001015160400151846103ec91906109c1565b935084818151811061040057610400610995565b6020026020010151606001518361041791906109c1565b92508185828151811061042c5761042c610995565b602002602001015160200151111561045f5784818151811061045057610450610995565b60200260200101516020015191505b80610469816109da565b9150506103ba565b5097919650945092505050565b6003602052816000526040600020818154811061049a57600080fd5b9060005260206000209060060201600091509150508060000154908060010154908060020154908060030154908060040154908060050180546104dc9061095b565b80601f01602080910402602001604051908101604052809291908181526020018280546105089061095b565b80156105555780601f1061052a57610100808354040283529160200191610555565b820191906000526020600020905b81548152906001019060200180831161053857829003601f168201915b5050505050905086565b6000546001600160a01b031633146105895760405162461bcd60e51b8152600401610282906109f3565b60008581526001602052604090205460ff166105df5760405162461bcd60e51b815260206004820152601560248201527411195d9a58d9481b9bdd081c9959da5cdd195c9959605a1b6044820152606401610282565b600084116106235760405162461bcd60e51b81526020600482015260116024820152700496e76616c69642074696d657374616d7607c1b6044820152606401610282565b6040805160c081018252868152602080820187815282840187815260608401878152436080860190815260a0860188815260008d815260038088529881208054600181810183559183529790912088516006909802019687559451948601949094559151600285015551948301949094559251600482015591519091829160058201906106b09082610a83565b50505060008681526002602052604081208054916106cd836109da565b9091555050604080518681526020810186905290810184905286907fa627ec3d8ee08a5ba90632b91b34ea453faac671954b9e22e3cf35489b89b7249060600160405180910390a2505050505050565b6000546001600160a01b031633146107475760405162461bcd60e51b8152600401610282906109f3565b6000818152600160208190526040808320805460ff19169092179091555182917f79f595cf6dbaba837815cf9ecd8ca43de1caeee13c88116a59e244315d149b7e91a250565b60006020828403121561079f57600080fd5b5035919050565b600080604083850312156107b957600080fd5b50508035926020909101359150565b6000815180845260005b818110156107ee576020818501810151868301820152016107d2565b506000602082860101526020601f19601f83011685010191505092915050565b86815285602082015284604082015283606082015282608082015260c060a0820152600061083f60c08301846107c8565b98975050505050505050565b634e487b7160e01b600052604160045260246000fd5b600080600080600060a0868803121561087957600080fd5b85359450602086013593506040860135925060608601359150608086013567ffffffffffffffff808211156108ad57600080fd5b818801915088601f8301126108c157600080fd5b8135818111156108d3576108d361084b565b604051601f8201601f19908116603f011681019083821181831017156108fb576108fb61084b565b816040528281528b602084870101111561091457600080fd5b8260208601602083013760006020848301015280955050505050509295509295909350565b60408152600061094c60408301856107c8565b90508260208301529392505050565b600181811c9082168061096f57607f821691505b60208210810361098f57634e487b7160e01b600052602260045260246000fd5b50919050565b634e487b7160e01b600052603260045260246000fd5b634e487b7160e01b600052601160045260246000fd5b808201808211156109d4576109d46109ab565b92915050565b6000600182016109ec576109ec6109ab565b5060010190565b60208082526021908201527f4f6e6c79206f776e65722063616e2063616c6c20746869732066756e6374696f6040820152603760f91b606082015260800190565b601f821115610a7e57600081815260208120601f850160051c81016020861015610a5b5750805b601f850160051c820191505b81811015610a7a57828155600101610a67565b5050505b505050565b815167ffffffffffffffff811115610a9d57610a9d61084b565b610ab181610aab845461095b565b84610a34565b602080601f831160018114610ae65760008415610ace5750858301515b600019600386901b1c1916600185901b178555610a7a565b600085815260208120601f198616915b82811015610b1557888601518255948401946001909101908401610af6565b5085821015610b335787850151600019600388901b60f8161c191681555b5050505050600190811b0190555056fea264697066735822122091c3122be430b9f8a6fcd82b41af93dced91c6df4a6c547ca32847205710457a64736f6c63430008130033","opcodes":"PUSH1 0x80 PUSH1 0x40 MSTORE CALLVALUE DUP1 ISZERO PUSH2 0x10 JUMPI PUSH1 0x0 DUP1 REVERT JUMPDEST POP PUSH1 0x0 DUP1 SLOAD PUSH1 0x1 PUSH1 0x1 PUSH1 0xA0 SHL SUB NOT AND CALLER OR SWAP1 SSTORE PUSH2 0xB79 DUP1 PUSH2 0x32 PUSH1 0x0 CODECOPY PUSH1 0x0 RETURN INVALID PUSH1 0x80 PUSH1 0x40 MSTORE CALLVALUE DUP1 ISZERO PUSH2 0x10 JUMPI PUSH1 0x0 DUP1 REVERT JUMPDEST POP PUSH1 0x4 CALLDATASIZE LT PUSH2 0x9E JUMPI PUSH1 0x0 CALLDATALOAD PUSH1 0xE0 SHR DUP1 PUSH4 0x85AC9A8E GT PUSH2 0x66 JUMPI DUP1 PUSH4 0x85AC9A8E EQ PUSH2 0x171 JUMPI DUP1 PUSH4 0x8DA5CB5B EQ PUSH2 0x191 JUMPI DUP1 PUSH4 0xBD48C51A EQ PUSH2 0x1BC JUMPI DUP1 PUSH4 0xE2127499 EQ PUSH2 0x1DF JUMPI DUP1 PUSH4 0xEA355E5C EQ PUSH2 0x1F2 JUMPI PUSH1 0x0 DUP1 REVERT JUMPDEST DUP1 PUSH4 0x389DC6E2 EQ PUSH2 0xA3 JUMPI DUP1 PUSH4 0x43386ED0 EQ PUSH2 0xD6 JUMPI DUP1 PUSH4 0x5590AEB3 EQ PUSH2 0x109 JUMPI DUP1 PUSH4 0x7A278AA6 EQ PUSH2 0x12E JUMPI DUP1 PUSH4 0x7A407FB5 EQ PUSH2 0x15C JUMPI JUMPDEST PUSH1 0x0 DUP1 REVERT JUMPDEST PUSH2 0xB6 PUSH2 0xB1 CALLDATASIZE PUSH1 0x4 PUSH2 0x78D JUMP JUMPDEST PUSH2 0x22C JUMP JUMPDEST PUSH1 0x40 DUP1 MLOAD SWAP4 DUP5 MSTORE PUSH1 0x20 DUP5 ADD SWAP3 SWAP1 SWAP3 MSTORE SWAP1 DUP3 ADD MSTORE PUSH1 0x60 ADD JUMPDEST PUSH1 0x40 MLOAD DUP1 SWAP2 SUB SWAP1 RETURN JUMPDEST PUSH2 0xF9 PUSH2 0xE4 CALLDATASIZE PUSH1 0x4 PUSH2 0x78D JUMP JUMPDEST PUSH1 0x1 PUSH1 0x20 MSTORE PUSH1 0x0 SWAP1 DUP2 MSTORE PUSH1 0x40 SWAP1 KECCAK256 SLOAD PUSH1 0xFF AND DUP2 JUMP JUMPDEST PUSH1 0x40 MLOAD SWAP1 ISZERO ISZERO DUP2 MSTORE PUSH1 0x20 ADD PUSH2 0xCD JUMP JUMPDEST PUSH2 0x11C PUSH2 0x117 CALLDATASIZE PUSH1 0x4 PUSH2 0x7A6 JUMP JUMPDEST PUSH2 0x47E JUMP JUMPDEST PUSH1 0x40 MLOAD PUSH2 0xCD SWAP7 SWAP6 SWAP5 SWAP4 SWAP3 SWAP2 SWAP1 PUSH2 0x80E JUMP JUMPDEST PUSH2 0x14E PUSH2 0x13C CALLDATASIZE PUSH1 0x4 PUSH2 0x78D JUMP JUMPDEST PUSH1 0x2 PUSH1 0x20 MSTORE PUSH1 0x0 SWAP1 DUP2 MSTORE PUSH1 0x40 SWAP1 KECCAK256 SLOAD DUP2 JUMP JUMPDEST PUSH1 0x40 MLOAD SWAP1 DUP2 MSTORE PUSH1 0x20 ADD PUSH2 0xCD JUMP JUMPDEST PUSH2 0x16F PUSH2 0x16A CALLDATASIZE PUSH1 0x4 PUSH2 0x861 JUMP JUMPDEST PUSH2 0x55F JUMP JUMPDEST STOP JUMPDEST PUSH2 0x14E PUSH2 0x17F CALLDATASIZE PUSH1 0x4 PUSH2 0x78D JUMP JUMPDEST PUSH1 0x0 SWAP1 DUP2 MSTORE PUSH1 0x2 PUSH1 0x20 MSTORE PUSH1 0x40 SWAP1 KECCAK256 SLOAD SWAP1 JUMP JUMPDEST PUSH1 0x0 SLOAD PUSH2 0x1A4 SWAP1 PUSH1 0x1 PUSH1 0x1 PUSH1 0xA0 SHL SUB AND DUP2 JUMP JUMPDEST PUSH1 0x40 MLOAD PUSH1 0x1 PUSH1 0x1 PUSH1 0xA0 SHL SUB SWAP1 SWAP2 AND DUP2 MSTORE PUSH1 0x20 ADD PUSH2 0xCD JUMP JUMPDEST PUSH2 0xF9 PUSH2 0x1CA CALLDATASIZE PUSH1 0x4 PUSH2 0x78D JUMP JUMPDEST PUSH1 0x0 SWAP1 DUP2 MSTORE PUSH1 0x1 PUSH1 0x20 MSTORE PUSH1 0x40 SWAP1 KECCAK256 SLOAD PUSH1 0xFF AND SWAP1 JUMP JUMPDEST PUSH2 0x16F PUSH2 0x1ED CALLDATASIZE PUSH1 0x4 PUSH2 0x78D JUMP JUMPDEST PUSH2 0x71D JUMP JUMPDEST PUSH1 0x40 DUP1 MLOAD DUP1 DUP3 ADD DUP3 MSTORE PUSH1 0x16 DUP2 MSTORE PUSH22 0x105D985B185B98DA1948119D5A9A4815195CDD1B995D PUSH1 0x52 SHL PUSH1 0x20 DUP3 ADD MSTORE SWAP1 MLOAD PUSH2 0xCD SWAP2 SWAP1 CHAINID SWAP1 PUSH2 0x939 JUMP JUMPDEST PUSH1 0x0 DUP2 DUP2 MSTORE PUSH1 0x1 PUSH1 0x20 MSTORE PUSH1 0x40 DUP2 KECCAK256 SLOAD DUP2 SWAP1 DUP2 SWAP1 PUSH1 0xFF AND PUSH2 0x28B JUMPI PUSH1 0x40 MLOAD PUSH3 0x461BCD PUSH1 0xE5 SHL DUP2 MSTORE PUSH1 0x20 PUSH1 0x4 DUP3 ADD MSTORE PUSH1 0x15 PUSH1 0x24 DUP3 ADD MSTORE PUSH21 0x11195D9A58D9481B9BDD081C9959DA5CDD195C9959 PUSH1 0x5A SHL PUSH1 0x44 DUP3 ADD MSTORE PUSH1 0x64 ADD JUMPDEST PUSH1 0x40 MLOAD DUP1 SWAP2 SUB SWAP1 REVERT JUMPDEST PUSH1 0x0 DUP5 DUP2 MSTORE PUSH1 0x3 PUSH1 0x20 SWAP1 DUP2 MSTORE PUSH1 0x40 DUP1 DUP4 KECCAK256 DUP1 SLOAD DUP3 MLOAD DUP2 DUP6 MUL DUP2 ADD DUP6 ADD SWAP1 SWAP4 MSTORE DUP1 DUP4 MSTORE SWAP2 SWAP3 SWAP1 SWAP2 SWAP1 DUP5 SWAP1 DUP5 ADD JUMPDEST DUP3 DUP3 LT ISZERO PUSH2 0x3AD JUMPI DUP4 DUP3 SWAP1 PUSH1 0x0 MSTORE PUSH1 0x20 PUSH1 0x0 KECCAK256 SWAP1 PUSH1 0x6 MUL ADD PUSH1 0x40 MLOAD DUP1 PUSH1 0xC0 ADD PUSH1 0x40 MSTORE SWAP1 DUP2 PUSH1 0x0 DUP3 ADD SLOAD DUP2 MSTORE PUSH1 0x20 ADD PUSH1 0x1 DUP3 ADD SLOAD DUP2 MSTORE PUSH1 0x20 ADD PUSH1 0x2 DUP3 ADD SLOAD DUP2 MSTORE PUSH1 0x20 ADD PUSH1 0x3 DUP3 ADD SLOAD DUP2 MSTORE PUSH1 0x20 ADD PUSH1 0x4 DUP3 ADD SLOAD DUP2 MSTORE PUSH1 0x20 ADD PUSH1 0x5 DUP3 ADD DUP1 SLOAD PUSH2 0x31C SWAP1 PUSH2 0x95B JUMP JUMPDEST DUP1 PUSH1 0x1F ADD PUSH1 0x20 DUP1 SWAP2 DIV MUL PUSH1 0x20 ADD PUSH1 0x40 MLOAD SWAP1 DUP2 ADD PUSH1 0x40 MSTORE DUP1 SWAP3 SWAP2 SWAP1 DUP2 DUP2 MSTORE PUSH1 0x20 ADD DUP3 DUP1 SLOAD PUSH2 0x348 SWAP1 PUSH2 0x95B JUMP JUMPDEST DUP1 ISZERO PUSH2 0x395 JUMPI DUP1 PUSH1 0x1F LT PUSH2 0x36A JUMPI PUSH2 0x100 DUP1 DUP4 SLOAD DIV MUL DUP4 MSTORE SWAP2 PUSH1 0x20 ADD SWAP2 PUSH2 0x395 JUMP JUMPDEST DUP3 ADD SWAP2 SWAP1 PUSH1 0x0 MSTORE PUSH1 0x20 PUSH1 0x0 KECCAK256 SWAP1 JUMPDEST DUP2 SLOAD DUP2 MSTORE SWAP1 PUSH1 0x1 ADD SWAP1 PUSH1 0x20 ADD DUP1 DUP4 GT PUSH2 0x378 JUMPI DUP3 SWAP1 SUB PUSH1 0x1F AND DUP3 ADD SWAP2 JUMPDEST POP POP POP POP POP DUP2 MSTORE POP POP DUP2 MSTORE PUSH1 0x20 ADD SWAP1 PUSH1 0x1 ADD SWAP1 PUSH2 0x2B7 JUMP JUMPDEST POP POP POP POP SWAP1 POP PUSH1 0x0 DUP1 PUSH1 0x0 DUP1 JUMPDEST DUP5 MLOAD DUP2 LT ISZERO PUSH2 0x471 JUMPI DUP5 DUP2 DUP2 MLOAD DUP2 LT PUSH2 0x3D5 JUMPI PUSH2 0x3D5 PUSH2 0x995 JUMP JUMPDEST PUSH1 0x20 MUL PUSH1 0x20 ADD ADD MLOAD PUSH1 0x40 ADD MLOAD DUP5 PUSH2 0x3EC SWAP2 SWAP1 PUSH2 0x9C1 JUMP JUMPDEST SWAP4 POP DUP5 DUP2 DUP2 MLOAD DUP2 LT PUSH2 0x400 JUMPI PUSH2 0x400 PUSH2 0x995 JUMP JUMPDEST PUSH1 0x20 MUL PUSH1 0x20 ADD ADD MLOAD PUSH1 0x60 ADD MLOAD DUP4 PUSH2 0x417 SWAP2 SWAP1 PUSH2 0x9C1 JUMP JUMPDEST SWAP3 POP DUP2 DUP6 DUP3 DUP2 MLOAD DUP2 LT PUSH2 0x42C JUMPI PUSH2 0x42C PUSH2 0x995 JUMP JUMPDEST PUSH1 0x20 MUL PUSH1 0x20 ADD ADD MLOAD PUSH1 0x20 ADD MLOAD GT ISZERO PUSH2 0x45F JUMPI DUP5 DUP2 DUP2 MLOAD DUP2 LT PUSH2 0x450 JUMPI PUSH2 0x450 PUSH2 0x995 JUMP JUMPDEST PUSH1 0x20 MUL PUSH1 0x20 ADD ADD MLOAD PUSH1 0x20 ADD MLOAD SWAP2 POP JUMPDEST DUP1 PUSH2 0x469 DUP2 PUSH2 0x9DA JUMP JUMPDEST SWAP2 POP POP PUSH2 0x3BA JUMP JUMPDEST POP SWAP8 SWAP2 SWAP7 POP SWAP5 POP SWAP3 POP POP POP JUMP JUMPDEST PUSH1 0x3 PUSH1 0x20 MSTORE DUP2 PUSH1 0x0 MSTORE PUSH1 0x40 PUSH1 0x0 KECCAK256 DUP2 DUP2 SLOAD DUP2 LT PUSH2 0x49A JUMPI PUSH1 0x0 DUP1 REVERT JUMPDEST SWAP1 PUSH1 0x0 MSTORE PUSH1 0x20 PUSH1 0x0 KECCAK256 SWAP1 PUSH1 0x6 MUL ADD PUSH1 0x0 SWAP2 POP SWAP2 POP POP DUP1 PUSH1 0x0 ADD SLOAD SWAP1 DUP1 PUSH1 0x1 ADD SLOAD SWAP1 DUP1 PUSH1 0x2 ADD SLOAD SWAP1 DUP1 PUSH1 0x3 ADD SLOAD SWAP1 DUP1 PUSH1 0x4 ADD SLOAD SWAP1 DUP1 PUSH1 0x5 ADD DUP1 SLOAD PUSH2 0x4DC SWAP1 PUSH2 0x95B JUMP JUMPDEST DUP1 PUSH1 0x1F ADD PUSH1 0x20 DUP1 SWAP2 DIV MUL PUSH1 0x20 ADD PUSH1 0x40 MLOAD SWAP1 DUP2 ADD PUSH1 0x40 MSTORE DUP1 SWAP3 SWAP2 SWAP1 DUP2 DUP2 MSTORE PUSH1 0x20 ADD DUP3 DUP1 SLOAD PUSH2 0x508 SWAP1 PUSH2 0x95B JUMP JUMPDEST DUP1 ISZERO PUSH2 0x555 JUMPI DUP1 PUSH1 0x1F LT PUSH2 0x52A JUMPI PUSH2 0x100 DUP1 DUP4 SLOAD DIV MUL DUP4 MSTORE SWAP2 PUSH1 0x20 ADD SWAP2 PUSH2 0x555 JUMP JUMPDEST DUP3 ADD SWAP2 SWAP1 PUSH1 0x0 MSTORE PUSH1 0x20 PUSH1 0x0 KECCAK256 SWAP1 JUMPDEST DUP2 SLOAD DUP2 MSTORE SWAP1 PUSH1 0x1 ADD SWAP1 PUSH1 0x20 ADD DUP1 DUP4 GT PUSH2 0x538 JUMPI DUP3 SWAP1 SUB PUSH1 0x1F AND DUP3 ADD SWAP2 JUMPDEST POP POP POP POP POP SWAP1 POP DUP7 JUMP JUMPDEST PUSH1 0x0 SLOAD PUSH1 0x1 PUSH1 0x1 PUSH1 0xA0 SHL SUB AND CALLER EQ PUSH2 0x589 JUMPI PUSH1 0x40 MLOAD PUSH3 0x461BCD PUSH1 0xE5 SHL DUP2 MSTORE PUSH1 0x4 ADD PUSH2 0x282 SWAP1 PUSH2 0x9F3 JUMP JUMPDEST PUSH1 0x0 DUP6 DUP2 MSTORE PUSH1 0x1 PUSH1 0x20 MSTORE PUSH1 0x40 SWAP1 KECCAK256 SLOAD PUSH1 0xFF AND PUSH2 0x5DF JUMPI PUSH1 0x40 MLOAD PUSH3 0x461BCD PUSH1 0xE5 SHL DUP2 MSTORE PUSH1 0x20 PUSH1 0x4 DUP3 ADD MSTORE PUSH1 0x15 PUSH1 0x24 DUP3 ADD MSTORE PUSH21 0x11195D9A58D9481B9BDD081C9959DA5CDD195C9959 PUSH1 0x5A SHL PUSH1 0x44 DUP3 ADD MSTORE PUSH1 0x64 ADD PUSH2 0x282 JUMP JUMPDEST PUSH1 0x0 DUP5 GT PUSH2 0x623 JUMPI PUSH1 0x40 MLOAD PUSH3 0x461BCD PUSH1 0xE5 SHL DUP2 MSTORE PUSH1 0x20 PUSH1 0x4 DUP3 ADD MSTORE PUSH1 0x11 PUSH1 0x24 DUP3 ADD MSTORE PUSH17 0x496E76616C69642074696D657374616D7 PUSH1 0x7C SHL PUSH1 0x44 DUP3 ADD MSTORE PUSH1 0x64 ADD PUSH2 0x282 JUMP JUMPDEST PUSH1 0x40 DUP1 MLOAD PUSH1 0xC0 DUP2 ADD DUP3 MSTORE DUP7 DUP2 MSTORE PUSH1 0x20 DUP1 DUP3 ADD DUP8 DUP2 MSTORE DUP3 DUP5 ADD DUP8 DUP2 MSTORE PUSH1 0x60 DUP5 ADD DUP8 DUP2 MSTORE NUMBER PUSH1 0x80 DUP7 ADD SWAP1 DUP2 MSTORE PUSH1 0xA0 DUP7 ADD DUP9 DUP2 MSTORE PUSH1 0x0 DUP14 DUP2 MSTORE PUSH1 0x3 DUP1 DUP9 MSTORE SWAP9 DUP2 KECCAK256 DUP1 SLOAD PUSH1 0x1 DUP2 DUP2 ADD DUP4 SSTORE SWAP2 DUP4 MSTORE SWAP8 SWAP1 SWAP2 KECCAK256 DUP9 MLOAD PUSH1 0x6 SWAP1 SWAP9 MUL ADD SWAP7 DUP8 SSTORE SWAP5 MLOAD SWAP5 DUP7 ADD SWAP5 SWAP1 SWAP5 SSTORE SWAP2 MLOAD PUSH1 0x2 DUP6 ADD SSTORE MLOAD SWAP5 DUP4 ADD SWAP5 SWAP1 SWAP5 SSTORE SWAP3 MLOAD PUSH1 0x4 DUP3 ADD SSTORE SWAP2 MLOAD SWAP1 SWAP2 DUP3 SWAP2 PUSH1 0x5 DUP3 ADD SWAP1 PUSH2 0x6B0 SWAP1 DUP3 PUSH2 0xA83 JUMP JUMPDEST POP POP POP PUSH1 0x0 DUP7 DUP2 MSTORE PUSH1 0x2 PUSH1 0x20 MSTORE PUSH1 0x40 DUP2 KECCAK256 DUP1 SLOAD SWAP2 PUSH2 0x6CD DUP4 PUSH2 0x9DA JUMP JUMPDEST SWAP1 SWAP2 SSTORE POP POP PUSH1 0x40 DUP1 MLOAD DUP7 DUP2 MSTORE PUSH1 0x20 DUP2 ADD DUP7 SWAP1 MSTORE SWAP1 DUP2 ADD DUP5 SWAP1 MSTORE DUP7 SWAP1 PUSH32 0xA627EC3D8EE08A5BA90632B91B34EA453FAAC671954B9E22E3CF35489B89B724 SWAP1 PUSH1 0x60 ADD PUSH1 0x40 MLOAD DUP1 SWAP2 SUB SWAP1 LOG2 POP POP POP POP POP POP JUMP JUMPDEST PUSH1 0x0 SLOAD PUSH1 0x1 PUSH1 0x1 PUSH1 0xA0 SHL SUB AND CALLER EQ PUSH2 0x747 JUMPI PUSH1 0x40 MLOAD PUSH3 0x461BCD PUSH1 0xE5 SHL DUP2 MSTORE PUSH1 0x4 ADD PUSH2 0x282 SWAP1 PUSH2 0x9F3 JUMP JUMPDEST PUSH1 0x0 DUP2 DUP2 MSTORE PUSH1 0x1 PUSH1 0x20 DUP2 SWAP1 MSTORE PUSH1 0x40 DUP1 DUP4 KECCAK256 DUP1 SLOAD PUSH1 0xFF NOT AND SWAP1 SWAP3 OR SWAP1 SWAP2 SSTORE MLOAD DUP3 SWAP2 PUSH32 0x79F595CF6DBABA837815CF9ECD8CA43DE1CAEEE13C88116A59E244315D149B7E SWAP2 LOG2 POP JUMP JUMPDEST PUSH1 0x0 PUSH1 0x20 DUP3 DUP5 SUB SLT ISZERO PUSH2 0x79F JUMPI PUSH1 0x0 DUP1 REVERT JUMPDEST POP CALLDATALOAD SWAP2 SWAP1 POP JUMP JUMPDEST PUSH1 0x0 DUP1 PUSH1 0x40 DUP4 DUP6 SUB SLT ISZERO PUSH2 0x7B9 JUMPI PUSH1 0x0 DUP1 REVERT JUMPDEST POP POP DUP1 CALLDATALOAD SWAP3 PUSH1 0x20 SWAP1 SWAP2 ADD CALLDATALOAD SWAP2 POP JUMP JUMPDEST PUSH1 0x0 DUP2 MLOAD DUP1 DUP5 MSTORE PUSH1 0x0 JUMPDEST DUP2 DUP2 LT ISZERO PUSH2 0x7EE JUMPI PUSH1 0x20 DUP2 DUP6 ADD DUP2 ADD MLOAD DUP7 DUP4 ADD DUP3 ADD MSTORE ADD PUSH2 0x7D2 JUMP JUMPDEST POP PUSH1 0x0 PUSH1 0x20 DUP3 DUP7 ADD ADD MSTORE PUSH1 0x20 PUSH1 0x1F NOT PUSH1 0x1F DUP4 ADD AND DUP6 ADD ADD SWAP2 POP POP SWAP3 SWAP2 POP POP JUMP JUMPDEST DUP7 DUP2 MSTORE DUP6 PUSH1 0x20 DUP3 ADD MSTORE DUP5 PUSH1 0x40 DUP3 ADD MSTORE DUP4 PUSH1 0x60 DUP3 ADD MSTORE DUP3 PUSH1 0x80 DUP3 ADD MSTORE PUSH1 0xC0 PUSH1 0xA0 DUP3 ADD MSTORE PUSH1 0x0 PUSH2 0x83F PUSH1 0xC0 DUP4 ADD DUP5 PUSH2 0x7C8 JUMP JUMPDEST SWAP9 SWAP8 POP POP POP POP POP POP POP POP JUMP JUMPDEST PUSH4 0x4E487B71 PUSH1 0xE0 SHL PUSH1 0x0 MSTORE PUSH1 0x41 PUSH1 0x4 MSTORE PUSH1 0x24 PUSH1 0x0 REVERT JUMPDEST PUSH1 0x0 DUP1 PUSH1 0x0 DUP1 PUSH1 0x0 PUSH1 0xA0 DUP7 DUP9 SUB SLT ISZERO PUSH2 0x879 JUMPI PUSH1 0x0 DUP1 REVERT JUMPDEST DUP6 CALLDATALOAD SWAP5 POP PUSH1 0x20 DUP7 ADD CALLDATALOAD SWAP4 POP PUSH1 0x40 DUP7 ADD CALLDATALOAD SWAP3 POP PUSH1 0x60 DUP7 ADD CALLDATALOAD SWAP2 POP PUSH1 0x80 DUP7 ADD CALLDATALOAD PUSH8 0xFFFFFFFFFFFFFFFF DUP1 DUP3 GT ISZERO PUSH2 0x8AD JUMPI PUSH1 0x0 DUP1 REVERT JUMPDEST DUP2 DUP9 ADD SWAP2 POP DUP9 PUSH1 0x1F DUP4 ADD SLT PUSH2 0x8C1 JUMPI PUSH1 0x0 DUP1 REVERT JUMPDEST DUP2 CALLDATALOAD DUP2 DUP2 GT ISZERO PUSH2 0x8D3 JUMPI PUSH2 0x8D3 PUSH2 0x84B JUMP JUMPDEST PUSH1 0x40 MLOAD PUSH1 0x1F DUP3 ADD PUSH1 0x1F NOT SWAP1 DUP2 AND PUSH1 0x3F ADD AND DUP2 ADD SWAP1 DUP4 DUP3 GT DUP2 DUP4 LT OR ISZERO PUSH2 0x8FB JUMPI PUSH2 0x8FB PUSH2 0x84B JUMP JUMPDEST DUP2 PUSH1 0x40 MSTORE DUP3 DUP2 MSTORE DUP12 PUSH1 0x20 DUP5 DUP8 ADD ADD GT ISZERO PUSH2 0x914 JUMPI PUSH1 0x0 DUP1 REVERT JUMPDEST DUP3 PUSH1 0x20 DUP7 ADD PUSH1 0x20 DUP4 ADD CALLDATACOPY PUSH1 0x0 PUSH1 0x20 DUP5 DUP4 ADD ADD MSTORE DUP1 SWAP6 POP POP POP POP POP POP SWAP3 SWAP6 POP SWAP3 SWAP6 SWAP1 SWAP4 POP JUMP JUMPDEST PUSH1 0x40 DUP2 MSTORE PUSH1 0x0 PUSH2 0x94C PUSH1 0x40 DUP4 ADD DUP6 PUSH2 0x7C8 JUMP JUMPDEST SWAP1 POP DUP3 PUSH1 0x20 DUP4 ADD MSTORE SWAP4 SWAP3 POP POP POP JUMP JUMPDEST PUSH1 0x1 DUP2 DUP2 SHR SWAP1 DUP3 AND DUP1 PUSH2 0x96F JUMPI PUSH1 0x7F DUP3 AND SWAP2 POP JUMPDEST PUSH1 0x20 DUP3 LT DUP2 SUB PUSH2 0x98F JUMPI PUSH4 0x4E487B71 PUSH1 0xE0 SHL PUSH1 0x0 MSTORE PUSH1 0x22 PUSH1 0x4 MSTORE PUSH1 0x24 PUSH1 0x0 REVERT JUMPDEST POP SWAP2 SWAP1 POP JUMP JUMPDEST PUSH4 0x4E487B71 PUSH1 0xE0 SHL PUSH1 0x0 MSTORE PUSH1 0x32 PUSH1 0x4 MSTORE PUSH1 0x24 PUSH1 0x0 REVERT JUMPDEST PUSH4 0x4E487B71 PUSH1 0xE0 SHL PUSH1 0x0 MSTORE PUSH1 0x11 PUSH1 0x4 MSTORE PUSH1 0x24 PUSH1 0x0 REVERT JUMPDEST DUP1 DUP3 ADD DUP1 DUP3 GT ISZERO PUSH2 0x9D4 JUMPI PUSH2 0x9D4 PUSH2 0x9AB JUMP JUMPDEST SWAP3 SWAP2 POP POP JUMP JUMPDEST PUSH1 0x0 PUSH1 0x1 DUP3 ADD PUSH2 0x9EC JUMPI PUSH2 0x9EC PUSH2 0x9AB JUMP JUMPDEST POP PUSH1 0x1 ADD SWAP1 JUMP JUMPDEST PUSH1 0x20 DUP1 DUP3 MSTORE PUSH1 0x21 SWAP1 DUP3 ADD MSTORE PUSH32 0x4F6E6C79206F776E65722063616E2063616C6C20746869732066756E6374696F PUSH1 0x40 DUP3 ADD MSTORE PUSH1 0x37 PUSH1 0xF9 SHL PUSH1 0x60 DUP3 ADD MSTORE PUSH1 0x80 ADD SWAP1 JUMP JUMPDEST PUSH1 0x1F DUP3 GT ISZERO PUSH2 0xA7E JUMPI PUSH1 0x0 DUP2 DUP2 MSTORE PUSH1 0x20 DUP2 KECCAK256 PUSH1 0x1F DUP6 ADD PUSH1 0x5 SHR DUP2 ADD PUSH1 0x20 DUP7 LT ISZERO PUSH2 0xA5B JUMPI POP DUP1 JUMPDEST PUSH1 0x1F DUP6 ADD PUSH1 0x5 SHR DUP3 ADD SWAP2 POP JUMPDEST DUP2 DUP2 LT ISZERO PUSH2 0xA7A JUMPI DUP3 DUP2 SSTORE PUSH1 0x1 ADD PUSH2 0xA67 JUMP JUMPDEST POP POP POP JUMPDEST POP POP POP JUMP JUMPDEST DUP2 MLOAD PUSH8 0xFFFFFFFFFFFFFFFF DUP2 GT ISZERO PUSH2 0xA9D JUMPI PUSH2 0xA9D PUSH2 0x84B JUMP JUMPDEST PUSH2 0xAB1 DUP2 PUSH2 0xAAB DUP5 SLOAD PUSH2 0x95B JUMP JUMPDEST DUP5 PUSH2 0xA34 JUMP JUMPDEST PUSH1 0x20 DUP1 PUSH1 0x1F DUP4 GT PUSH1 0x1 DUP2 EQ PUSH2 0xAE6 JUMPI PUSH1 0x0 DUP5 ISZERO PUSH2 0xACE JUMPI POP DUP6 DUP4 ADD MLOAD JUMPDEST PUSH1 0x0 NOT PUSH1 0x3 DUP7 SWAP1 SHL SHR NOT AND PUSH1 0x1 DUP6 SWAP1 SHL OR DUP6 SSTORE PUSH2 0xA7A JUMP JUMPDEST PUSH1 0x0 DUP6 DUP2 MSTORE PUSH1 0x20 DUP2 KECCAK256 PUSH1 0x1F NOT DUP7 AND SWAP2 JUMPDEST DUP3 DUP2 LT ISZERO PUSH2 0xB15 JUMPI DUP9 DUP7 ADD MLOAD DUP3 SSTORE SWAP5 DUP5 ADD SWAP5 PUSH1 0x1 SWAP1 SWAP2 ADD SWAP1 DUP5 ADD PUSH2 0xAF6 JUMP JUMPDEST POP DUP6 DUP3 LT ISZERO PUSH2 0xB33 JUMPI DUP8 DUP6 ADD MLOAD PUSH1 0x0 NOT PUSH1 0x3 DUP9 SWAP1 SHL PUSH1 0xF8 AND SHR NOT AND DUP2 SSTORE JUMPDEST POP POP POP POP POP PUSH1 0x1 SWAP1 DUP2 SHL ADD SWAP1 SSTORE POP JUMP INVALID LOG2 PUSH5 0x6970667358 0x22 SLT KECCAK256 SWAP2 0xC3 SLT 0x2B 0xE4 ADDRESS 0xB9 0xF8 0xA6 0xFC 0xD8 0x2B COINBASE 0xAF SWAP4 0xDC 0xED SWAP2 0xC6 0xDF 0x4A PUSH13 0x547CA32847205710457A64736F PUSH13 0x63430008130033000000000000 "},"methodIdentifiers":{"deviceDataCount(uint256)":"7a278aa6","deviceReadings(uint256,uint256)":"5590aeb3","getDeviceStats(uint256)":"389dc6e2","getNetworkInfo()":"ea355e5c","getReadingCount(uint256)":"85ac9a8e","isDeviceRegistered(uint256)":"bd48c51a","owner()":"8da5cb5b","registerDevice(uint256)":"e2127499","registeredDevices(uint256)":"43386ed0","submitEnergyData(uint256,uint256,uint256,uint256,bytes)":"7a407fb5"}}}}}