{"contracts/chainlink/functions/FunctionsResponse.sol":{"FunctionsResponse":{"abi":[{"inputs":[],"name":"RESPONSE_DATA_VERSION","outputs":[{"internalType":"uint16","name":"","type":"uint16"}],"stateMutability":"view","type":"function"}],"evm":{"bytecode":{"linkReferences":{},"object":"608c610038600b82828239805160001a607314602b57634e487b7160e01b600052600060045260246000fd5b30600052607381538281f3fe730000000000000000000000000000000000000000301460806040526004361060335760003560e01c80630c17dc3f146038575b600080fd5b603f600181565b60405161ffff909116815260200160405180910390f3fea2646970667358221220d2de4d90871bcd354bd3c9a1aed0037a8674b2b6ef4cf97ebdccc0fff46615fe64736f6c63430008140033","opcodes":"PUSH1 0x8C PUSH2 0x38 PUSH1 0xB DUP3 DUP3 DUP3 CODECOPY DUP1 MLOAD PUSH1 0x0 BYTE PUSH1 0x73 EQ PUSH1 0x2B JUMPI PUSH4 0x4E487B71 PUSH1 0xE0 SHL PUSH1 0x0 MSTORE PUSH1 0x0 PUSH1 0x4 MSTORE PUSH1 0x24 PUSH1 0x0 REVERT JUMPDEST ADDRESS PUSH1 0x0 MSTORE PUSH1 0x73 DUP2 MSTORE8 DUP3 DUP2 RETURN INVALID PUSH20 0x0 ADDRESS EQ PUSH1 0x80 PUSH1 0x40 MSTORE PUSH1 0x4 CALLDATASIZE LT PUSH1 0x33 JUMPI PUSH1 0x0 CALLDATALOAD PUSH1 0xE0 SHR DUP1 PUSH4 0xC17DC3F EQ PUSH1 0x38 JUMPI JUMPDEST PUSH1 0x0 DUP1 REVERT JUMPDEST PUSH1 0x3F PUSH1 0x1 DUP2 JUMP JUMPDEST PUSH1 0x40 MLOAD PUSH2 0xFFFF SWAP1 SWAP2 AND DUP2 MSTORE PUSH1 0x20 ADD PUSH1 0x40 MLOAD DUP1 SWAP2 SUB SWAP1 RETURN INVALID LOG2 PUSH5 0x6970667358 0x22 SLT KECCAK256 0xD2 0xDE 0x4D SWAP1 DUP8 SHL 0xCD CALLDATALOAD 0x4B 0xD3 0xC9 LOG1 0xAE 0xD0 SUB PUSH27 0x8674B2B6EF4CF97EBDCCC0FFF46615FE64736F6C63430008140033 "},"methodIdentifiers":{"RESPONSE_DATA_VERSION()":"0c17dc3f"}}}}}