{
  "_format": "hh-sol-artifact-1",
  "contractName": "WattWitness",
  "sourceName": "contracts/WattWitness.sol",
  "abi": [
    {
      "inputs": [],
      "stateMutability": "nonpayable",
      "type": "constructor"
    },
    {
      "anonymous": false,
      "inputs": [
        {
          "indexed": true,
          "internalType": "uint256",
          "name": "installationId",
          "type": "uint256"
        }
      ],
      "name": "DeviceRegistered",
      "type": "event"
    },
    {
      "anonymous": false,
      "inputs": [
        {
          "indexed": true,
          "internalType": "uint256",
          "name": "installationId",
          "type": "uint256"
        },
        {
          "indexed": false,
          "internalType": "uint256",
          "name": "timestamp",
          "type": "uint256"
        },
        {
          "indexed": false,
          "internalType": "uint256",
          "name": "powerConsumption",
          "type": "uint256"
        },
        {
          "indexed": false,
          "internalType": "uint256",
          "name": "powerProduction",
          "type": "uint256"
        }
      ],
      "name": "EnergyDataSubmitted",
      "type": "event"
    },
    {
      "inputs": [
        {
          "internalType": "uint256",
          "name": "",
          "type": "uint256"
        }
      ],
      "name": "deviceDataCount",
      "outputs": [
        {
          "internalType": "uint256",
          "name": "",
          "type": "uint256"
        }
      ],
      "stateMutability": "view",
      "type": "function"
    },
    {
      "inputs": [
        {
          "internalType": "uint256",
          "name": "",
          "type": "uint256"
        },
        {
          "internalType": "uint256",
          "name": "",
          "type": "uint256"
        }
      ],
      "name": "deviceReadings",
      "outputs": [
        {
          "internalType": "uint256",
          "name": "installationId",
          "type": "uint256"
        },
        {
          "internalType": "uint256",
          "name": "timestamp",
          "type": "uint256"
        },
        {
          "internalType": "uint256",
          "name": "powerConsumption",
          "type": "uint256"
        },
        {
          "internalType": "uint256",
          "name": "powerProduction",
          "type": "uint256"
        },
        {
          "internalType": "uint256",
          "name": "blockNumber",
          "type": "uint256"
        },
        {
          "internalType": "bytes",
          "name": "signature",
          "type": "bytes"
        }
      ],
      "stateMutability": "view",
      "type": "function"
    },
    {
      "inputs": [
        {
          "internalType": "uint256",
          "name": "_installationId",
          "type": "uint256"
        }
      ],
      "name": "getDeviceStats",
      "outputs": [
        {
          "internalType": "uint256",
          "name": "lastTimestamp",
          "type": "uint256"
        },
        {
          "internalType": "uint256",
          "name": "totalConsumption",
          "type": "uint256"
        },
        {
          "internalType": "uint256",
          "name": "totalProduction",
          "type": "uint256"
        }
      ],
      "stateMutability": "view",
      "type": "function"
    },
    {
      "inputs": [],
      "name": "getNetworkInfo",
      "outputs": [
        {
          "internalType": "string",
          "name": "networkName",
          "type": "string"
        },
        {
          "internalType": "uint256",
          "name": "chainId",
          "type": "uint256"
        }
      ],
      "stateMutability": "view",
      "type": "function"
    },
    {
      "inputs": [
        {
          "internalType": "uint256",
          "name": "_installationId",
          "type": "uint256"
        }
      ],
      "name": "getReadingCount",
      "outputs": [
        {
          "internalType": "uint256",
          "name": "count",
          "type": "uint256"
        }
      ],
      "stateMutability": "view",
      "type": "function"
    },
    {
      "inputs": [
        {
          "internalType": "uint256",
          "name": "_installationId",
          "type": "uint256"
        }
      ],
      "name": "isDeviceRegistered",
      "outputs": [
        {
          "internalType": "bool",
          "name": "",
          "type": "bool"
        }
      ],
      "stateMutability": "view",
      "type": "function"
    },
    {
      "inputs": [],
      "name": "owner",
      "outputs": [
        {
          "internalType": "address",
          "name": "",
          "type": "address"
        }
      ],
      "stateMutability": "view",
      "type": "function"
    },
    {
      "inputs": [
        {
          "internalType": "uint256",
          "name": "_installationId",
          "type": "uint256"
        }
      ],
      "name": "registerDevice",
      "outputs": [],
      "stateMutability": "nonpayable",
      "type": "function"
    },
    {
      "inputs": [
        {
          "internalType": "uint256",
          "name": "",
          "type": "uint256"
        }
      ],
      "name": "registeredDevices",
      "outputs": [
        {
          "internalType": "bool",
          "name": "",
          "type": "bool"
        }
      ],
      "stateMutability": "view",
      "type": "function"
    },
    {
      "inputs": [
        {
          "internalType": "uint256",
          "name": "_installationId",
          "type": "uint256"
        },
        {
          "internalType": "uint256",
          "name": "_timestamp",
          "type": "uint256"
        },
        {
          "internalType": "uint256",
          "name": "_powerConsumption",
          "type": "uint256"
        },
        {
          "internalType": "uint256",
          "name": "_powerProduction",
          "type": "uint256"
        },
        {
          "internalType": "bytes",
          "name": "_signature",
          "type": "bytes"
        }
      ],
      "name": "submitEnergyData",
      "outputs": [],
      "stateMutability": "nonpayable",
      "type": "function"
    }
  ],
  "bytecode": "0x608060405234801561001057600080fd5b50600080546001600160a01b03191633179055610b79806100326000396000f3fe608060405234801561001057600080fd5b506004361061009e5760003560e01c806385ac9a8e1161006657806385ac9a8e146101715780638da5cb5b14610191578063bd48c51a146101bc578063e2127499146101df578063ea355e5c146101f257600080fd5b8063389dc6e2146100a357806343386ed0146100d65780635590aeb3146101095780637a278aa61461012e5780637a407fb51461015c575b600080fd5b6100b66100b136600461078d565b61022c565b604080519384526020840192909252908201526060015b60405180910390f35b6100f96100e436600461078d565b60016020526000908152604090205460ff1681565b60405190151581526020016100cd565b61011c6101173660046107a6565b61047e565b6040516100cd9695949392919061080e565b61014e61013c36600461078d565b60026020526000908152604090205481565b6040519081526020016100cd565b61016f61016a366004610861565b61055f565b005b61014e61017f36600461078d565b60009081526002602052604090205490565b6000546101a4906001600160a01b031681565b6040516001600160a01b0390911681526020016100cd565b6100f96101ca36600461078d565b60009081526001602052604090205460ff1690565b61016f6101ed36600461078d565b61071d565b6040805180820182526016815275105d985b185b98da1948119d5a9a4815195cdd1b995d60521b602082015290516100cd91904690610939565b6000818152600160205260408120548190819060ff1661028b5760405162461bcd60e51b815260206004820152601560248201527411195d9a58d9481b9bdd081c9959da5cdd195c9959605a1b60448201526064015b60405180910390fd5b600084815260036020908152604080832080548251818502810185019093528083529192909190849084015b828210156103ad57838290600052602060002090600602016040518060c0016040529081600082015481526020016001820154815260200160028201548152602001600382015481526020016004820154815260200160058201805461031c9061095b565b80601f01602080910402602001604051908101604052809291908181526020018280546103489061095b565b80156103955780601f1061036a57610100808354040283529160200191610395565b820191906000526020600020905b81548152906001019060200180831161037857829003601f168201915b505050505081525050815260200190600101906102b7565b5050505090506000806000805b8451811015610471578481815181106103d5576103d5610995565b602002602001015160400151846103ec91906109c1565b935084818151811061040057610400610995565b6020026020010151606001518361041791906109c1565b92508185828151811061042c5761042c610995565b602002602001015160200151111561045f5784818151811061045057610450610995565b60200260200101516020015191505b80610469816109da565b9150506103ba565b5097919650945092505050565b6003602052816000526040600020818154811061049a57600080fd5b9060005260206000209060060201600091509150508060000154908060010154908060020154908060030154908060040154908060050180546104dc9061095b565b80601f01602080910402602001604051908101604052809291908181526020018280546105089061095b565b80156105555780601f1061052a57610100808354040283529160200191610555565b820191906000526020600020905b81548152906001019060200180831161053857829003601f168201915b5050505050905086565b6000546001600160a01b031633146105895760405162461bcd60e51b8152600401610282906109f3565b60008581526001602052604090205460ff166105df5760405162461bcd60e51b815260206004820152601560248201527411195d9a58d9481b9bdd081c9959da5cdd195c9959605a1b6044820152606401610282565b600084116106235760405162461bcd60e51b81526020600482015260116024820152700496e76616c69642074696d657374616d7607c1b6044820152606401610282565b6040805160c081018252868152602080820187815282840187815260608401878152436080860190815260a0860188815260008d815260038088529881208054600181810183559183529790912088516006909802019687559451948601949094559151600285015551948301949094559251600482015591519091829160058201906106b09082610a83565b50505060008681526002602052604081208054916106cd836109da565b9091555050604080518681526020810186905290810184905286907fa627ec3d8ee08a5ba90632b91b34ea453faac671954b9e22e3cf35489b89b7249060600160405180910390a2505050505050565b6000546001600160a01b031633146107475760405162461bcd60e51b8152600401610282906109f3565b6000818152600160208190526040808320805460ff19169092179091555182917f79f595cf6dbaba837815cf9ecd8ca43de1caeee13c88116a59e244315d149b7e91a250565b60006020828403121561079f57600080fd5b5035919050565b600080604083850312156107b957600080fd5b50508035926020909101359150565b6000815180845260005b818110156107ee576020818501810151868301820152016107d2565b506000602082860101526020601f19601f83011685010191505092915050565b86815285602082015284604082015283606082015282608082015260c060a0820152600061083f60c08301846107c8565b98975050505050505050565b634e487b7160e01b600052604160045260246000fd5b600080600080600060a0868803121561087957600080fd5b85359450602086013593506040860135925060608601359150608086013567ffffffffffffffff808211156108ad57600080fd5b818801915088601f8301126108c157600080fd5b8135818111156108d3576108d361084b565b604051601f8201601f19908116603f011681019083821181831017156108fb576108fb61084b565b816040528281528b602084870101111561091457600080fd5b8260208601602083013760006020848301015280955050505050509295509295909350565b60408152600061094c60408301856107c8565b90508260208301529392505050565b600181811c9082168061096f57607f821691505b60208210810361098f57634e487b7160e01b600052602260045260246000fd5b50919050565b634e487b7160e01b600052603260045260246000fd5b634e487b7160e01b600052601160045260246000fd5b808201808211156109d4576109d46109ab565b92915050565b6000600182016109ec576109ec6109ab565b5060010190565b60208082526021908201527f4f6e6c79206f776e65722063616e2063616c6c20746869732066756e6374696f6040820152603760f91b606082015260800190565b601f821115610a7e57600081815260208120601f850160051c81016020861015610a5b5750805b601f850160051c820191505b81811015610a7a57828155600101610a67565b5050505b505050565b815167ffffffffffffffff811115610a9d57610a9d61084b565b610ab181610aab845461095b565b84610a34565b602080601f831160018114610ae65760008415610ace5750858301515b600019600386901b1c1916600185901b178555610a7a565b600085815260208120601f198616915b82811015610b1557888601518255948401946001909101908401610af6565b5085821015610b335787850151600019600388901b60f8161c191681555b5050505050600190811b0190555056fea26469706673582212200f262fd6d37b53e641de811659eb3ea4bcb6f110cb5238c3edc129a91050539f64736f6c63430008140033",
  "linkReferences": {},
  "deployedLinkReferences": {}
}