{"abi":[{"type":"constructor","inputs":[{"name":"router","type":"address","internalType":"address"}],"stateMutability":"nonpayable"},{"type":"function","name":"acceptOwnership","inputs":[],"outputs":[],"stateMutability":"nonpayable"},{"type":"function","name":"donID","inputs":[],"outputs":[{"name":"","type":"bytes32","internalType":"bytes32"}],"stateMutability":"view"},{"type":"function","name":"gasLimit","inputs":[],"outputs":[{"name":"","type":"uint32","internalType":"uint32"}],"stateMutability":"view"},{"type":"function","name":"handleOracleFulfillment","inputs":[{"name":"requestId","type":"bytes32","internalType":"bytes32"},{"name":"response","type":"bytes","internalType":"bytes"},{"name":"err","type":"bytes","internalType":"bytes"}],"outputs":[],"stateMutability":"nonpayable"},{"type":"function","name":"owner","inputs":[],"outputs":[{"name":"","type":"address","internalType":"address"}],"stateMutability":"view"},{"type":"function","name":"request","inputs":[],"outputs":[{"name":"","type":"bytes","internalType":"bytes"}],"stateMutability":"view"},{"type":"function","name":"s_lastError","inputs":[],"outputs":[{"name":"","type":"bytes","internalType":"bytes"}],"stateMutability":"view"},{"type":"function","name":"s_lastRequestId","inputs":[],"outputs":[{"name":"","type":"bytes32","internalType":"bytes32"}],"stateMutability":"view"},{"type":"function","name":"s_lastResponse","inputs":[],"outputs":[{"name":"","type":"bytes","internalType":"bytes"}],"stateMutability":"view"},{"type":"function","name":"sendRequestCBOR","inputs":[],"outputs":[{"name":"requestId","type":"bytes32","internalType":"bytes32"}],"stateMutability":"nonpayable"},{"type":"function","name":"setAutomationCronContract","inputs":[{"name":"_upkeepContract","type":"address","internalType":"address"}],"outputs":[],"stateMutability":"nonpayable"},{"type":"function","name":"subscriptionId","inputs":[],"outputs":[{"name":"","type":"uint64","internalType":"uint64"}],"stateMutability":"view"},{"type":"function","name":"transferOwnership","inputs":[{"name":"to","type":"address","internalType":"address"}],"outputs":[],"stateMutability":"nonpayable"},{"type":"function","name":"updateRequest","inputs":[{"name":"_request","type":"bytes","internalType":"bytes"},{"name":"_subscriptionId","type":"uint64","internalType":"uint64"},{"name":"_gasLimit","type":"uint32","internalType":"uint32"},{"name":"_donID","type":"bytes32","internalType":"bytes32"}],"outputs":[],"stateMutability":"nonpayable"},{"type":"function","name":"upkeepContract","inputs":[],"outputs":[{"name":"","type":"address","internalType":"address"}],"stateMutability":"view"},{"type":"event","name":"OwnershipTransferRequested","inputs":[{"name":"from","type":"address","indexed":true,"internalType":"address"},{"name":"to","type":"address","indexed":true,"internalType":"address"}],"anonymous":false},{"type":"event","name":"OwnershipTransferred","inputs":[{"name":"from","type":"address","indexed":true,"internalType":"address"},{"name":"to","type":"address","indexed":true,"internalType":"address"}],"anonymous":false},{"type":"event","name":"RequestFulfilled","inputs":[{"name":"id","type":"bytes32","indexed":true,"internalType":"bytes32"}],"anonymous":false},{"type":"event","name":"RequestSent","inputs":[{"name":"id","type":"bytes32","indexed":true,"internalType":"bytes32"}],"anonymous":false},{"type":"event","name":"Response","inputs":[{"name":"requestId","type":"bytes32","indexed":true,"internalType":"bytes32"},{"name":"response","type":"bytes","indexed":false,"internalType":"bytes"},{"name":"err","type":"bytes","indexed":false,"internalType":"bytes"}],"anonymous":false},{"type":"error","name":"NotAllowedCaller","inputs":[{"name":"caller","type":"address","internalType":"address"},{"name":"owner","type":"address","internalType":"address"},{"name":"automationRegistry","type":"address","internalType":"address"}]},{"type":"error","name":"OnlyRouterCanFulfill","inputs":[]},{"type":"error","name":"UnexpectedRequestID","inputs":[{"name":"requestId","type":"bytes32","internalType":"bytes32"}]}],"bytecode":{"object":"0x60a06040523480156200001157600080fd5b5060405162001c7438038062001c7483398181016040528101906200003791906200030d565b33806000838073ffffffffffffffffffffffffffffffffffffffff1660808173ffffffffffffffffffffffffffffffffffffffff168152505050600073ffffffffffffffffffffffffffffffffffffffff168273ffffffffffffffffffffffffffffffffffffffff1603620000e3576040517f08c379a0000000000000000000000000000000000000000000000000000000008152600401620000da90620003a0565b60405180910390fd5b816000806101000a81548173ffffffffffffffffffffffffffffffffffffffff021916908373ffffffffffffffffffffffffffffffffffffffff160217905550600073ffffffffffffffffffffffffffffffffffffffff168173ffffffffffffffffffffffffffffffffffffffff16146200016a5762000169816200017460201b60201c565b5b5050505062000434565b3373ffffffffffffffffffffffffffffffffffffffff168173ffffffffffffffffffffffffffffffffffffffff1603620001e5576040517f08c379a0000000000000000000000000000000000000000000000000000000008152600401620001dc9062000412565b60405180910390fd5b80600160006101000a81548173ffffffffffffffffffffffffffffffffffffffff021916908373ffffffffffffffffffffffffffffffffffffffff1602179055508073ffffffffffffffffffffffffffffffffffffffff1660008054906101000a900473ffffffffffffffffffffffffffffffffffffffff1673ffffffffffffffffffffffffffffffffffffffff167fed8889f560326eb138920d842192f0eb3dd22b4f139c87a2c57538e05bae127860405160405180910390a350565b600080fd5b600073ffffffffffffffffffffffffffffffffffffffff82169050919050565b6000620002d582620002a8565b9050919050565b620002e781620002c8565b8114620002f357600080fd5b50565b6000815190506200030781620002dc565b92915050565b600060208284031215620003265762000325620002a3565b5b60006200033684828501620002f6565b91505092915050565b600082825260208201905092915050565b7f43616e6e6f7420736574206f776e657220746f207a65726f0000000000000000600082015250565b6000620003886018836200033f565b9150620003958262000350565b602082019050919050565b60006020820190508181036000830152620003bb8162000379565b9050919050565b7f43616e6e6f74207472616e7366657220746f2073656c66000000000000000000600082015250565b6000620003fa6017836200033f565b91506200040782620003c2565b602082019050919050565b600060208201905081810360008301526200042d81620003eb565b9050919050565b60805161181d62000457600039600081816102bc0152610a77015261181d6000f3fe608060405234801561001057600080fd5b50600436106100f55760003560e01c80636e74336b11610097578063b1e2174911610066578063b1e217491461022c578063c41c7dce1461024a578063f2fde38b14610266578063f68016b714610282576100f5565b80636e74336b146101ca57806379ba5097146101e85780638da5cb5b146101f2578063a271f3fe14610210576100f5565b8063338cdca1116100d3578063338cdca1146101525780633944ea3a146101705780634b0795a81461018e5780635e0611f1146101ac576100f5565b806309c1ba2e146100fa5780630ca761751461011857806314b3167814610134575b600080fd5b6101026102a0565b60405161010f9190610d34565b60405180910390f35b610132600480360381019061012d9190610edf565b6102ba565b005b61013c61037c565b6040516101499190610f79565b60405180910390f35b61015a61054c565b6040516101679190611013565b60405180910390f35b6101786105da565b6040516101859190611013565b60405180910390f35b610196610668565b6040516101a39190611013565b60405180910390f35b6101b46106f6565b6040516101c19190611076565b60405180910390f35b6101d261071c565b6040516101df9190610f79565b60405180910390f35b6101f0610722565b005b6101fa6108b7565b6040516102079190611076565b60405180910390f35b61022a600480360381019061022591906110bd565b6108e0565b005b61023461092c565b6040516102419190610f79565b60405180910390f35b610264600480360381019061025f9190611152565b610932565b005b610280600480360381019061027b91906110bd565b6109a1565b005b61028a6109b5565b60405161029791906111e4565b60405180910390f35b600460009054906101000a900467ffffffffffffffff1681565b7f000000000000000000000000000000000000000000000000000000000000000073ffffffffffffffffffffffffffffffffffffffff163373ffffffffffffffffffffffffffffffffffffffff161461033f576040517fc6829f8300000000000000000000000000000000000000000000000000000000815260040160405180910390fd5b61034a8383836109cb565b827f85e1543bf2f84fe80c6badbce3648c8539ad1df4d2b3d822938ca0538be727e660405160405180910390a2505050565b60006103866108b7565b73ffffffffffffffffffffffffffffffffffffffff163373ffffffffffffffffffffffffffffffffffffffff161415801561040f5750600260009054906101000a900473ffffffffffffffffffffffffffffffffffffffff1673ffffffffffffffffffffffffffffffffffffffff163373ffffffffffffffffffffffffffffffffffffffff1614155b1561047e573361041d6108b7565b600260009054906101000a900473ffffffffffffffffffffffffffffffffffffffff166040517f426fbc71000000000000000000000000000000000000000000000000000000008152600401610475939291906111ff565b60405180910390fd5b61053e6003805461048e90611265565b80601f01602080910402602001604051908101604052809291908181526020018280546104ba90611265565b80156105075780601f106104dc57610100808354040283529160200191610507565b820191906000526020600020905b8154815290600101906020018083116104ea57829003601f168201915b5050505050600460009054906101000a900467ffffffffffffffff16600460089054906101000a900463ffffffff16600554610a72565b600681905550600654905090565b6003805461055990611265565b80601f016020809104026020016040519081016040528092919081815260200182805461058590611265565b80156105d25780601f106105a7576101008083540402835291602001916105d2565b820191906000526020600020905b8154815290600101906020018083116105b557829003601f168201915b505050505081565b600780546105e790611265565b80601f016020809104026020016040519081016040528092919081815260200182805461061390611265565b80156106605780601f1061063557610100808354040283529160200191610660565b820191906000526020600020905b81548152906001019060200180831161064357829003601f168201915b505050505081565b6008805461067590611265565b80601f01602080910402602001604051908101604052809291908181526020018280546106a190611265565b80156106ee5780601f106106c3576101008083540402835291602001916106ee565b820191906000526020600020905b8154815290600101906020018083116106d157829003601f168201915b505050505081565b600260009054906101000a900473ffffffffffffffffffffffffffffffffffffffff1681565b60055481565b600160009054906101000a900473ffffffffffffffffffffffffffffffffffffffff1673ffffffffffffffffffffffffffffffffffffffff163373ffffffffffffffffffffffffffffffffffffffff16146107b2576040517f08c379a00000000000000000000000000000000000000000000000000000000081526004016107a9906112f3565b60405180910390fd5b60008060009054906101000a900473ffffffffffffffffffffffffffffffffffffffff169050336000806101000a81548173ffffffffffffffffffffffffffffffffffffffff021916908373ffffffffffffffffffffffffffffffffffffffff1602179055506000600160006101000a81548173ffffffffffffffffffffffffffffffffffffffff021916908373ffffffffffffffffffffffffffffffffffffffff1602179055503373ffffffffffffffffffffffffffffffffffffffff168173ffffffffffffffffffffffffffffffffffffffff167f8be0079c531659141344cd1fd0a4f28419497f9722a3daafe3b4186f6b6457e060405160405180910390a350565b60008060009054906101000a900473ffffffffffffffffffffffffffffffffffffffff16905090565b6108e8610b55565b80600260006101000a81548173ffffffffffffffffffffffffffffffffffffffff021916908373ffffffffffffffffffffffffffffffffffffffff16021790555050565b60065481565b61093a610b55565b836003908161094991906114c9565b5082600460006101000a81548167ffffffffffffffff021916908367ffffffffffffffff16021790555081600460086101000a81548163ffffffff021916908363ffffffff1602179055508060058190555050505050565b6109a9610b55565b6109b281610be5565b50565b600460089054906101000a900463ffffffff1681565b8260065414610a1157826040517fd068bf5b000000000000000000000000000000000000000000000000000000008152600401610a089190610f79565b60405180910390fd5b8160079081610a2091906114c9565b508060089081610a3091906114c9565b50827f7873807bf6ddc50401cd3d29bbe0decee23fd4d68d273f4b5eb83cded4d2f17260076008604051610a6592919061161f565b60405180910390a2505050565b6000807f000000000000000000000000000000000000000000000000000000000000000073ffffffffffffffffffffffffffffffffffffffff1663461d27628688600188886040518663ffffffff1660e01b8152600401610ad7959493929190611673565b6020604051808303816000875af1158015610af6573d6000803e3d6000fd5b505050506040513d601f19601f82011682018060405250810190610b1a91906116e2565b9050807f1131472297a800fee664d1d89cfa8f7676ff07189ecc53f80bbb5f4969099db860405160405180910390a280915050949350505050565b60008054906101000a900473ffffffffffffffffffffffffffffffffffffffff1673ffffffffffffffffffffffffffffffffffffffff163373ffffffffffffffffffffffffffffffffffffffff1614610be3576040517f08c379a0000000000000000000000000000000000000000000000000000000008152600401610bda9061175b565b60405180910390fd5b565b3373ffffffffffffffffffffffffffffffffffffffff168173ffffffffffffffffffffffffffffffffffffffff1603610c53576040517f08c379a0000000000000000000000000000000000000000000000000000000008152600401610c4a906117c7565b60405180910390fd5b80600160006101000a81548173ffffffffffffffffffffffffffffffffffffffff021916908373ffffffffffffffffffffffffffffffffffffffff1602179055508073ffffffffffffffffffffffffffffffffffffffff1660008054906101000a900473ffffffffffffffffffffffffffffffffffffffff1673ffffffffffffffffffffffffffffffffffffffff167fed8889f560326eb138920d842192f0eb3dd22b4f139c87a2c57538e05bae127860405160405180910390a350565b600067ffffffffffffffff82169050919050565b610d2e81610d11565b82525050565b6000602082019050610d496000830184610d25565b92915050565b6000604051905090565b600080fd5b600080fd5b6000819050919050565b610d7681610d63565b8114610d8157600080fd5b50565b600081359050610d9381610d6d565b92915050565b600080fd5b600080fd5b6000601f19601f8301169050919050565b7f4e487b7100000000000000000000000000000000000000000000000000000000600052604160045260246000fd5b610dec82610da3565b810181811067ffffffffffffffff82111715610e0b57610e0a610db4565b5b80604052505050565b6000610e1e610d4f565b9050610e2a8282610de3565b919050565b600067ffffffffffffffff821115610e4a57610e49610db4565b5b610e5382610da3565b9050602081019050919050565b82818337600083830152505050565b6000610e82610e7d84610e2f565b610e14565b905082815260208101848484011115610e9e57610e9d610d9e565b5b610ea9848285610e60565b509392505050565b600082601f830112610ec657610ec5610d99565b5b8135610ed6848260208601610e6f565b91505092915050565b600080600060608486031215610ef857610ef7610d59565b5b6000610f0686828701610d84565b935050602084013567ffffffffffffffff811115610f2757610f26610d5e565b5b610f3386828701610eb1565b925050604084013567ffffffffffffffff811115610f5457610f53610d5e565b5b610f6086828701610eb1565b9150509250925092565b610f7381610d63565b82525050565b6000602082019050610f8e6000830184610f6a565b92915050565b600081519050919050565b600082825260208201905092915050565b60005b83811015610fce578082015181840152602081019050610fb3565b60008484015250505050565b6000610fe582610f94565b610fef8185610f9f565b9350610fff818560208601610fb0565b61100881610da3565b840191505092915050565b6000602082019050818103600083015261102d8184610fda565b905092915050565b600073ffffffffffffffffffffffffffffffffffffffff82169050919050565b600061106082611035565b9050919050565b61107081611055565b82525050565b600060208201905061108b6000830184611067565b92915050565b61109a81611055565b81146110a557600080fd5b50565b6000813590506110b781611091565b92915050565b6000602082840312156110d3576110d2610d59565b5b60006110e1848285016110a8565b91505092915050565b6110f381610d11565b81146110fe57600080fd5b50565b600081359050611110816110ea565b92915050565b600063ffffffff82169050919050565b61112f81611116565b811461113a57600080fd5b50565b60008135905061114c81611126565b92915050565b6000806000806080858703121561116c5761116b610d59565b5b600085013567ffffffffffffffff81111561118a57611189610d5e565b5b61119687828801610eb1565b94505060206111a787828801611101565b93505060406111b88782880161113d565b92505060606111c987828801610d84565b91505092959194509250565b6111de81611116565b82525050565b60006020820190506111f960008301846111d5565b92915050565b60006060820190506112146000830186611067565b6112216020830185611067565b61122e6040830184611067565b949350505050565b7f4e487b7100000000000000000000000000000000000000000000000000000000600052602260045260246000fd5b6000600282049050600182168061127d57607f821691505b6020821081036112905761128f611236565b5b50919050565b600082825260208201905092915050565b7f4d7573742062652070726f706f736564206f776e657200000000000000000000600082015250565b60006112dd601683611296565b91506112e8826112a7565b602082019050919050565b6000602082019050818103600083015261130c816112d0565b9050919050565b60008190508160005260206000209050919050565b60006020601f8301049050919050565b600082821b905092915050565b6000600883026113757fffffffffffffffffffffffffffffffffffffffffffffffffffffffffffffffff82611338565b61137f8683611338565b95508019841693508086168417925050509392505050565b6000819050919050565b6000819050919050565b60006113c66113c16113bc84611397565b6113a1565b611397565b9050919050565b6000819050919050565b6113e0836113ab565b6113f46113ec826113cd565b848454611345565b825550505050565b600090565b6114096113fc565b6114148184846113d7565b505050565b5b818110156114385761142d600082611401565b60018101905061141a565b5050565b601f82111561147d5761144e81611313565b61145784611328565b81016020851015611466578190505b61147a61147285611328565b830182611419565b50505b505050565b600082821c905092915050565b60006114a060001984600802611482565b1980831691505092915050565b60006114b9838361148f565b9150826002028217905092915050565b6114d282610f94565b67ffffffffffffffff8111156114eb576114ea610db4565b5b6114f58254611265565b61150082828561143c565b600060209050601f8311600181146115335760008415611521578287015190505b61152b85826114ad565b865550611593565b601f19841661154186611313565b60005b8281101561156957848901518255600182019150602085019450602081019050611544565b868310156115865784890151611582601f89168261148f565b8355505b6001600288020188555050505b505050505050565b600081546115a881611265565b6115b28186610f9f565b945060018216600081146115cd57600181146115e357611616565b60ff198316865281151560200286019350611616565b6115ec85611313565b60005b8381101561160e578154818901526001820191506020810190506115ef565b808801955050505b50505092915050565b60006040820190508181036000830152611639818561159b565b9050818103602083015261164d818461159b565b90509392505050565b600061ffff82169050919050565b61166d81611656565b82525050565b600060a0820190506116886000830188610d25565b818103602083015261169a8187610fda565b90506116a96040830186611664565b6116b660608301856111d5565b6116c36080830184610f6a565b9695505050505050565b6000815190506116dc81610d6d565b92915050565b6000602082840312156116f8576116f7610d59565b5b6000611706848285016116cd565b91505092915050565b7f4f6e6c792063616c6c61626c65206279206f776e657200000000000000000000600082015250565b6000611745601683611296565b91506117508261170f565b602082019050919050565b6000602082019050818103600083015261177481611738565b9050919050565b7f43616e6e6f74207472616e7366657220746f2073656c66000000000000000000600082015250565b60006117b1601783611296565b91506117bc8261177b565b602082019050919050565b600060208201905081810360008301526117e0816117a4565b905091905056fea2646970667358221220cf52cc8efbb7175f71d45a34ac254d0434489848584dac781933ad7f67feeec464736f6c63430008130033","linkReferences":{}},"methodIdentifiers":{"acceptOwnership()":"79ba5097","donID()":"6e74336b","gasLimit()":"f68016b7","handleOracleFulfillment(bytes32,bytes,bytes)":"0ca76175","owner()":"8da5cb5b","request()":"338cdca1","s_lastError()":"4b0795a8","s_lastRequestId()":"b1e21749","s_lastResponse()":"3944ea3a","sendRequestCBOR()":"14b31678","setAutomationCronContract(address)":"a271f3fe","subscriptionId()":"09c1ba2e","transferOwnership(address)":"f2fde38b","updateRequest(bytes,uint64,uint32,bytes32)":"c41c7dce","upkeepContract()":"5e0611f1"},"id":31}